:020000040800F2
:1000000068060020350200083D0200083F02000893
:1000100041020008430200084502000800000000F9
:10002000000000000000000000000000470200087F
:1000300049020008000000004B0200084D020008C1
:100040004F0200084F0200084F0200084F0200084C
:100050004F0200084F0200084F0200084F0200083C
:100060004F0200084F0200084F0200084F0200082C
:100070004F0200084F0200084F0200084F0200081C
:100080004F0200084F0200084F0200080000000065
:100090000000000000000000000000004F02000807
:1000A0004F0200084F0200084F0200084F020008EC
:1000B0004F0200084F0200084F0200084F020008DC
:1000C0004F0200084F0200084F0200084F020008CC
:1000D0004F0200084F0200084F0200080000000015
:1000E0004F0200084F0200084F0200080000000005
:1000F0000000000000000000000000004F020008A7
:10010000000000004F0200084F0200084F020008E4
:1001100000000000000000000000000000000000DF
:100120004F0200084F0200084F0200084F0200086B
:100130004F02000800000000000000000000000066
:100140000000000000000000000000004F02000856
:100150004F0200084F0200084F0200084F0200083B
:100160004F0200084F0200080000000000000000DD
:10017000000000000000000000000000000000007F
:10018000000000004F020008000000000000000016
:100190004F02000800F002F800F03CF80AA090E8D6
:1001A000000C82448344AAF10107DA4501D100F032
:1001B00031F8AFF2090EBAE80F0013F0010F18BFC3
:1001C000FB1A43F001031847A4080000C40800000C
:1001D000103A24BF78C878C1FAD8520724BF30C873
:1001E00030C144BF04680C60704700000023002445
:1001F00000250026103A28BF78C1FBD8520728BF37
:1002000030C148BF0B6070471FB500F021FC1FBD17
:1002100010B510BD00F031F81146FFF7F5FF00F002
:1002200001F900F04FF803B4FFF7F2FF03BC00F050
:1002300057F800000948804709480047FEE7FEE7F5
:10024000FEE7FEE7FEE7FEE7FEE7FEE7FEE7FEE786
:1002500004480549054A064B70470000F1020008B2
:100260009501000868000020680600206802002050
:1002700068020020704770477047754600F02CF800
:10028000AE4605006946534620F00700854618B083
:1002900020B5FFF7DDFFBDE820404FF000064FF02E
:1002A00000074FF000084FF0000BAC46ACE8C00967
:1002B000ACE8C009ACE8C009ACE8C00921F007010E
:1002C0008D46704710B50446AFF300802046BDE868
:1002D0001040FFF7A8BF000000487047080000204A
:1002E00001491820ABBEFEE726000200704700005F
:1002F0004EF68850CEF20000016841F470010160B2
:100300007047000043F63000C4F20200016841F07B
:10031000010101600021C4F202010A6842F00C02EE
:100320000A604169012241F48071416142F2080092
:10033000C4F2010000210160C2624162016841F023
:10034000010101607047000081B000900098012811
:100350000ADB00204FF0FF31009A01319142FBDBB4
:10036000009901308842F5DB01B0704709280AD8AE
:1003700001463020DFE801F00805090B0D0F1113CD
:1003800017153120704720207047322070473320E6
:10039000704734207047352070473620704737202B
:1003A0007047392070473820704700000000000077
:1003B00080B542F20800C4F20100016841F08041BA
:1003C000016000BF50F8081C8907FBD5406C80B263
:1003D00000F02DFA9FED0A0B53EC102B00F09EF865
:1003E0009FED090B53EC102B00F034FA9FED080B36
:1003F00053EC102B00F02EFA00F0EAF980BD00BF9C
:100400000000000000FEAF406666666666660A4051
:10041000000000000000594080B500F02BF8FFF705
:1004200071FF80BDFFF7F8FF532000F019F874202A
:1004300000F016F8612000F013F8722000F010F8B8
:10044000742000F00DF800BF0D2000F009F84FF403
:10045000FA60FFF779FFFFF7ABFF00F041F8F3E731
:1004600044F20041C4F20001486000BF0868400641
:10047000FCD5704743F63000C4F2020001684BF22D
:10048000C53241F0010101600169C9F2A21241F4D3
:10049000003101610020C4F20200016841F0200136
:1004A0000160816841F020018160016A41F4E061EE
:1004B000016244F20C40C4F20000016841F40051B2
:1004C000016040F20001C2F200010968A1FB0212C2
:1004D000110C40F8041C016841F0080101607047EC
:1004E000B0B5B8B14CF6CD4504460A28CCF6CC459B
:1004F00004D3A4FB0501C808FFF7F2FFA4FB050124
:10050000C80800EB8000A4EB4000FFF72FFFFFF7C7
:10051000A7FFB0BD3020FFF7A3FFB0BD2DE9C0415C
:1005200030B4DFF8A4C23CEA111418BF3CEA13143B
:1005300000F0ED801CEA111481EA030544EAD57449
:1005400018BF1CEA131500F0C880A4EB050404F1E1
:100550007F7404F500344FF0004545EAC12145EAB7
:10056000C32341EA505143EA52534FEAC0204FEAB5
:10057000C222994208BF904200F09D804FEA136565
:100580000FF24416765D4FEA134506FB05F7C7F1F7
:10059000807706FB07F74FEAD737A7FB0368764259
:1005A000A7FB06CEC8F5803838BFA8F1010807FBC5
:1005B00008E6A6FB028C4FF0000EE6FB03CEDCF152
:1005C000000CCEF1004E38BFAEF1010EA6FB0C5868
:1005D0004FF00007E6FB0E87A1FB08C6A0FB07CE85
:1005E00016EB0E064FF0000545F10005E1FB07652F
:1005F00015F1E04E7EBFA4F580345FEA46066D41FA
:1006000016F1800745F100054FEA172747EA05670D
:100610004FEA15254FEA0666A6F1DE46B6F1805F81
:1006200020D9384605EBC47124F0010C01EB0C1104
:10063000BCF1FE6F02D8F0BCBDE8008124425CBF73
:1006400001F5801E9EEAC47F02D4F0BCBDE80081A3
:10065000244200F13980A1F1C041F0BCBDE8004165
:1006600000F0F0B94FEAD02040EA41504FEAD121E2
:100670004FEAD22242EA43524FEAD323A7FB028633
:1006800007FB036605FB02661EEA0E0F58BFA6EBCA
:100690000056B6EB00564FEA520E4EEAC37E18EBF8
:1006A0000E0E56EB530EBCD518EB02085E417F1CB4
:1006B00055F10005B5E74FF480154FF000074FF0F6
:1006C00000064FF00008ACE701F1C04101F0004125
:1006D0004FF00000F0BCBDE800810CEA131511EAF0
:1006E0000C1F00D00CE013EA0C1F00F026804FF026
:1006F000000081EA030101F00041F0BCBDE8008187
:10070000F0BCBDE8004181EA030100F09BB9F0BCF8
:10071000BDE8004170B500F047F900BF097EFC3E1E
:1007200000F007B84FF0000081EA030101F000413A
:10073000704781EA030100F085B9F0BCBDE80041D3
:1007400022494FF000007047FFFDFBF9F7F5F4F286
:10075000F0EEEDEBE9E8E6E4E3E1E0DEDDDBDAD85C
:10076000D7D5D4D3D1D0CFCDCCCBCAC8C7C6C5C4BA
:10077000C2C1C0BFBEBDBCBBBAB9B8B7B6B5B4B3D1
:10078000B2B1B0AFAEADACABAAA9A8A8A7A6A5A4BC
:10079000A3A3A2A1A09F9F9E9D9C9C9B9A99999880
:1007A0009797969595949393929191908F8F8E8E23
:1007B0008D8C8C8B8B8A89898888878786858584B0
:1007C00084838382828181800000FF070000F87F9C
:1007D0004FEA41034FEA5353A3F58063D3F11E035D
:1007E000C8BFD3F1210C0CDD4FF0004242EAC12218
:1007F00042EA505232FA03FC8CEAE17CACEBE17045
:100800007047102BC4BF0020704703F5787CBCF103
:10081000FF3F04D06FF0004282EA2100704770B5BC
:1008200000F0C2F84992248000207047F2E7B0FA45
:1008300080F310FA03F10AD0C3F11D0303F58063BE
:100840004FEA03524FEA415002EBD12170474FF07B
:100850000000704770B5DFF848C11CEA111E1EBFCA
:100860001CEA13159EEA0C0F95EA0C0F00F06F803E
:1008700081EA03044EEAD47EAE4421EA4C1123EA15
:100880004C1341F4801143F48013AEF17F7EA1FB41
:10089000024CA0FB0365361955EB0C05A1FB034C7C
:1008A0004CF10003A0FB021C16EB0C06654153F152
:1008B0000003094218BF46F0010613F4007F0BD174
:1008C0004FEA03314FEA053041EA155140EA16502C
:1008D00034036FF003020AE04FEAC3214FEAC52058
:1008E00041EA555140EA5650F4026FF0020202EB21
:1008F0002E4201EB025585EACE710AD05FEA440C24
:1009000018BF24F0004450F1000041F1000120EA3A
:10091000D47040F2FE7C624500D270BDA84214BF84
:100920004FF080444FF04044002E08BF0024BEF139
:10093000806FA8BFA1F1C041BDE8704080F2828005
:1009400001F1C04101F000414FF0000070470CEA96
:1009500013159EEA0C0F18BF95EA0C0F06D081EA1A
:10096000030E4FF000000EF0004170BD00F01CF8C7
:100970008900013E00F007B800F009B84FEA430CC7
:100980005FEA5C5C08D081EA030100F05BB84FEAE3
:10099000410C5FEA5C5CF6D102494FF00000704701
:1009A0000000FF070000F87F0EF1020E2EF0030E8C
:1009B0005EF8046B364205D4012A43EB030515F5B6
:1009C000001F12D8012841EB010C1CF5001F0CD8A8
:1009D0000ED14FEAD17C0CEB4C0C0CF1020C15F54E
:1009E000001F08BF4CEBD37C04E04FF0080C01E083
:1009F0004FEAD37C0CEB4C0526FA05F606F0070609
:100A0000B6F1040C06D20EEB860CBDE870404CF03B
:100A1000010C6047DFE80CF0090B02024FF00041C7
:100A2000A1F500214FF0000070BD194610460128C5
:100A300051EB010418BFD4F5001484BF002001F06D
:100A4000004170BD0808A0F500114FEA3101704760
:100A5000F1EE100A4FF6FF71C0F2C03120EA01003A
:100A600040F04070E1EE100A704700008C0A000868
:100A70000000002004000000D0010008900A0008D7
:100A80000800002060060000EC0100080024F400CB
:0400000508000235B8
:00000001FF
