:020000040800F2
:10000000D00600203502000829130008011100085D
:10001000251300082D040008C91600080000000080
:100020000000000000000000000000005D13000858
:100030003104000800000000591300089113000863
:100040004F0200084F0200084F0200084F0200084C
:100050004F0200084F020008350400084104000860
:100060004D040008590400084F0200084F02000820
:100070004F0200084F0200084F0200084F0200081C
:100080004F0200084F0200084F0200080000000065
:100090000000000000000000000000004F02000807
:1000A0004F0200084F0200084F0200084F020008EC
:1000B0004F0200084F0200084F0200084F020008DC
:1000C0004F0200084F0200084F0200084F020008CC
:1000D0004F020008B91600084F0200080000000097
:1000E0004F0200084F0200084F0200080000000005
:1000F0000000000000000000000000004F020008A7
:10010000000000004F0200084F0200084F020008E4
:1001100000000000000000000000000000000000DF
:100120004F0200084F0200084F0200084F0200086B
:100130004F02000800000000000000000000000066
:100140000000000000000000000000004F02000856
:100150004F0200084F0200084F0200084F0200083B
:100160004F0200084F0200080000000000000000DD
:10017000000000000000000000000000000000007F
:10018000000000004F020008000000000000000016
:100190004F02000800F002F800F03CF80AA090E8D6
:1001A000000C82448344AAF10107DA4501D100F032
:1001B00031F8AFF2090EBAE80F0013F0010F18BFC3
:1001C000FB1A43F001031847B8180000D8180000C4
:1001D000103A24BF78C878C1FAD8520724BF30C873
:1001E00030C144BF04680C60704700000023002445
:1001F00000250026103A28BF78C1FBD8520728BF37
:1002000030C148BF0B6070471FB501F020FC1FBD17
:1002100010B510BD00F0D0F81146FFF7F5FF01F062
:10022000D9FB00F0EEF803B4FFF7F2FF03BC00F0D7
:10023000F5F800000948804709480047FEE7FEE757
:10024000FEE7FEE7FEE7FEE7FEE7FEE7FEE7FEE786
:1002500004480549054A064B704700003914000858
:1002600095010008D0000020D0060020D002002018
:10027000D002002053EA020C00F069802DE9F04B17
:100280004FF00006002B1FBFB3FA83F503FA05F405
:1002900024FA05F65E4012BF1643B2FA82F502FA5E
:1002A00005F4C5F120051EBF22FA05FC44EA0C0442
:1002B000203556EA044C4FEA144418BF641C4FF032
:1002C00000084FF00009904271EB030C39D300296C
:1002D00019BFB1FA81F701FA07F6B0FA80F700FA10
:1002E00007F6C7F120071EBF20FA07FC46EA0C06F6
:1002F0002037B6FBF4FCA7EB0507103F07F01F0BF8
:10030000CBF120062CFA06F60CFA0BFB44BFB346E1
:100310000026202FA4BF5E464FF0000B5BEA060CC0
:1003200008BF4FF0010B19EB0B0948EB0608ABFBBC
:10033000027C06FB02CC0BFB03CCC01B71EB0C0157
:10034000C1E70B46024641464846BDE8F08B13B56F
:10035000084318BF4FF0FF300146AFF30080BDE8FF
:100360001C4070474FF0000200B513469446964675
:10037000203922BFA0E80C50A0E80C50B1F12001B8
:10038000BFF4F7AF090728BFA0E80C5048BF0CC066
:100390005DF804EB890028BF40F8042B08BF7047C4
:1003A00048BF20F8022B11F0804F18BF00F8012B36
:1003B0007047704770477047754600F02BF8AE469F
:1003C00005006946534620F00700854618B020B561
:1003D000FFF73EFFBDE820404FF000064FF000075A
:1003E0004FF000084FF0000BAC46ACE8C009ACE899
:1003F000C009ACE8C009ACE8C00921F007018D468E
:10040000704710B50446AFF300802046BDE81040A9
:10041000FFF709BF0048704710000020014918206D
:10042000ABBEFEE72600020070470000FEE70000BA
:100430007047000080B5012000F096F880BD0000F4
:1004400080B5022000F090F880BD000080B5042047
:1004500000F08AF880BD000080B5082000F084F824
:1004600080BD0000EFF3108072B600BFFEE7000011
:1004700070B5866D044600F05FF994F835100229D6
:1004800025D105462068216C026822F01602026020
:10049000426922F08002426109B9A16C19B1016878
:1004A00021F008010160016821F00101016000BF35
:1004B00020680068C0070ED000F03EF9401B0628F7
:1004C000F6D320206065032084F835000CE08020FE
:1004D0006065012008E0E06D3F2101FA00F0B060A6
:1004E000012084F835000020002184F8341070BD0C
:1004F00090F83510022909D1052180F835100068DF
:10050000016821F0010101600020704780214165F0
:1005100001207047B0B5044600F00EF9054640F2E0
:100520000400C2F200000078611C18BF044400BF40
:1005300000F002F9401BA042FAD3B0BD10B504464A
:10054000692000F017FEE00708BF10BD6E2000F024
:1005500011FE01F00DF90446062000F065F9204671
:1005600000F008FE10BD000080B543F61441C4F24F
:1005700001010A68024208BF80BD0860FFF7DEFF84
:1005800080BD00002DE9F04F83B000F13E4202F142
:10059000FF724FEAB22241F200070192C4F2020751
:1005A00007224FF0010E00254FF0000A4FF000081F
:1005B000B84208BF042200920AE000BF08F1010817
:1005C0000AF1040AB8F1100F05F1020500F0A48049
:1005D0000C680EFA08FB14EA0B09EFD04C6804F023
:1005E000030CACF1010EBEF1010F11D80322876894
:1005F00002FA05F6CA68B743AA403A4382604268E5
:10060000C4F3001722EA0B0207FA08F73A434260E4
:10061000BCF1030F1CD0C26803238E6803FA05F7F0
:10062000BA4306FA05F73A43BCF1020FC2600FD194
:100630006FF0030202EA580202440AF01C060F237C
:10064000176A03FA06F40B69A743B3403B431362EE
:10065000026803234F68AB409A4307F00303AB40A3
:100660001A4317F4403F4FF0010E0260A6D000225B
:1006700043F644030292C4F202031A6843F60044AC
:1006800042F480421A601A68C4F2010402F4804203
:100690000292029A28F003024FF6084B2244CFF64A
:1006A000FF7B52F80B300AF00C070F26BE4023EAFE
:1006B000060C019B009E042B38BF1E4606FA07F766
:1006C00047EA0C0342F80B30A2684B6842EA09077C
:1006D00043F60C4CDE0258BF22EA0907A760C4F2B9
:1006E000010CDCF800209E0242EA090758BF22EA0A
:1006F0000907CCF8007062689E0342EA090758BFF8
:1007000022EA090767602268DB0342EA090358BF4F
:1007100022EA0903236051E703B0BDE8F08F00002F
:100720000069084018BF012070470000002A08BF78
:10073000090481617047000040F2CC00C2F2000061
:100740000068704740F2040040F2CC01C2F20000A1
:10075000C2F2000100780A68104408607047000087
:1007600080B543F60040C4F20200016841F4007114
:100770000160016841F480610160016841F48071A9
:100780000160032000F068F8002000F005F800F098
:100790002BF8002080BD0000B0B540F20402C2F288
:1007A000000240F200011278C2F200014FF47A73A5
:1007B0000968B3FBF2F20446B1FBF2F1084600F01F
:1007C00003FB0F2C4FF001050CD858B94FF0FF3048
:1007D00021460022002500F02FF840F20800C2F266
:1007E000000004602846B0BD80B582B0002043F60A
:1007F00040010190C4F202014A6842F480424A601A
:100800004A6802F480420192019A0090086840F020
:1008100080500860086800F0805000900098072021
:1008200000F01AF802B080BD80B500F04FFF80BD27
:1008300080B500F05BFF80BD70B514460D460646DE
:1008400000F064FF2946224600F070FD0146304664
:1008500000F064FF70BD000080B500F071FF80BD46
:100860002DE9F041002800F08B8043F60808C4F21F
:1008700002080446D8F8F8030D4600F00700884245
:1008800007D288F8F853D8F8F80300F00700A84218
:1008900076D12068810717D5410705D5D8F8001013
:1008A00041F4E051C8F80010010705D5D8F8001050
:1008B00041F46041C8F80010D8F80010A26821F097
:1008C000F0011143C8F80010C0073FD1D8F8F80371
:1008D00000F00700A84207D988F8F853D8F8F803C1
:1008E00000F00700A8424BD12068410707D5D8F88F
:1008F0000010E26821F4E0511143C8F8001000072D
:1009000008D5D8F80000216920F4604040EAC10011
:10091000C8F8000000F07EF8D8F8001041F6682210
:10092000C1F30311C0F60002515C40F2000220FA4C
:1009300001F140F20800C2F200000068C2F20002B9
:100940001160FFF729FF0020BDE8F0816068811E7B
:10095000022907D258F8081C89015CBF0120BDE8B4
:10096000F08110E0012807D158F8081C89035CBF0A
:100970000120BDE8F08106E058F8081C890702D480
:100980000120BDE8F081D8F8001021F003010843F0
:10099000C8F80000FFF7D0FE064641F2883700BFD6
:1009A000D8F80000616800F00C00B0EB810F8DD02A
:1009B000FFF7C2FE801BB842F2D90320BDE8F081E8
:1009C00040F20000C2F200000068704780B5FFF7F7
:1009D000F7FF43F60801C4F20201096841F67822E4
:1009E000C1F38221C0F60002515CC84080BD000006
:1009F00080B5FFF7E5FF43F60801C4F2020109687C
:100A000041F67822C1F34231C0F60002515CC84081
:100A100080BD000010B543F60404C4F2020460680F
:100A200000F00C0142F200400829C0F2F40007D0A7
:100A3000042918BF10BD41F20020C0F27A0010BD99
:100A4000216801F03F02216823684902C3F388113D
:100A500005D4A1FB00010023FFF70CFC06E041F2E6
:100A60000020C0F27A004843B0FBF2F02168022275
:100A7000C1F3014102EB4101B0FBF1F010BD0000F8
:100A80002DE9F04182B0002800F0A28004460078F1
:100A900043F60006C007C4F2020643D0B06800F077
:100AA0000C00042805D1306880033BD56068C8BBC2
:100AB0008EE0B06800F00C00082802D17068400297
:100AC000F1D46568B5F5A02F0AD0B5F5803F0BD0FD
:100AD000306820F480303060306820F4802006E0F8
:100AE000306840F480203060306840F480303060FE
:100AF000FFF722FE002D054611D000BF30688003AD
:100B000010D4FFF719FE401B6428F7D922E100BF7B
:100B1000FFF712FE401B64284FF0030055D83068E1
:100B20008003F5D4207880071AD5B06810F00C0F38
:100B300009D0B06800F00C00082840F08A80706886
:100B4000400200F186803068800702D5E068012805
:100B50003ED13068216920F0F80040EAC1003060E1
:100B60002078000738D4207840074CD4A5695DB3BD
:100B7000B06800F00C00082840F09E80012D27D0BE
:100B80007068E16900F480028A4221D1216A00F094
:100B90003F028A421CD147F6C071626A0140B1EB44
:100BA000821F15D1A26A0023CFF6FF7303EBC23276
:100BB00000F440316FF30F02914209D1E16A00F075
:100BC0007060B0EB016F03D1002002B0BDE8F0818E
:100BD000012002B0BDE8F0816069002840F2000009
:100BE000C4F2472057D00121C0F8801EFFF7A4FDB2
:100BF000054600BF706F8007B5D4FFF79DFD401B11
:100C00000228F7D9A6E0306C10F080580AD10020F5
:100C10000190306C40F080503064306C00F08050B7
:100C20000190019847F20007C4F200073868C00538
:100C300024D4386840F480703860FFF77DFD0546A5
:100C40003868C0051AD4FFF777FD401B0228F7D992
:100C500080E0E068002851D00020C4F24720012144
:100C60000160FFF769FD0546306880073FF571AF09
:100C7000FFF762FD401B0228F6D96BE0A568052D41
:100C800050D0012D52D0306F20F001003067306F0E
:100C900020F004004DE00021C0F8801EFFF74CFD5D
:100CA000054600BF706F80077FF55DAFFFF744FD1D
:100CB000401B0228F6D94DE00027C4F24727002048
:100CC0003866FFF739FD022D05460BD130688001EB
:100CD00058D5FFF731FD401B02284FF00300F5D92E
:100CE00073E700BF306880017FF56EAFFFF724FD2A
:100CF000401B02284FF00300F4D966E70020C4F23D
:100D0000472000210160FFF717FD05463068800786
:100D10007FF526AFFFF710FD401B02284FF00300C0
:100D2000F4D952E7306F40F004003067306F40F084
:100D300001003067FFF700FD002D054641F28837BE
:100D400014D000BF306F800713D4FFF7F5FC401BB1
:100D5000B842F7D9032002B0BDE8F081FFF7ECFC00
:100D6000401BB8424FF003003FF62FAF306F8007B3
:100D7000F4D4B8F1000F7FF4F9AE306C20F080505D
:100D80003064F3E604F11C052FCD08430021CFF6B3
:100D9000FF7140EA821001EBC3316FF30F0140EAAB
:100DA00005600843706001203866FFF7C5FC044603
:100DB000306880013FF508AFFFF7BEFC001B02283A
:100DC0004FF00300F4D900E780B500F0C9FA80BD08
:100DD0007047000070470000B0B582B00368044659
:100DE0001868D9685A6900F02F05202D01F02005F8
:100DF00005D125B1204600F065FB02B0B0BD5FEA29
:100E0000007C1EBF02F0010E01F4907212EB0E0284
:100E100048D1226B0840C1063BD5012A39D10020B8
:100E2000019018680190586801900198586940062F
:100E300040D4A08DE18DE28D002A1CBF401A5FEAEC
:100E4000004101D102B0B0BD216851E8031F226802
:100E500021F4907142E80313002BF5D1216851E889
:100E6000051F226821F0010142E80513002BF5D18E
:100E7000202184F83E100021216300BF216851E841
:100E8000031F226821F0100142E80313002BF5D163
:100E900052E0010656D44006D4D5204600F006FBA9
:100EA00002B0B0BDC20718BF11F480724FD1420723
:100EB00053D459E0A06B016849688AB2002AC1D0B6
:100EC000A38D9A42BED2E185C069B0F5807F30D053
:100ED000206850E8030F216820F4807041E8030285
:100EE000002AF5D1206850E8050F216820F00100A4
:100EF00041E80502002AF5D1206850E8050F216875
:100F000020F0400041E80502002AF5D1202084F8B5
:100F10003E000020206300BF206850E8030F2168D6
:100F200020F0100041E80302002AF5D1A06BFFF782
:100F30009FFAA08DE18D401A81B22046FFF748FF4D
:100F400002B0B0BD204600F08DFB02B0B0BD226CF7
:100F500042F001022264420706D5BEF1000F03D021
:100F6000226C42F002022264820706D5BEF1000F15
:100F700003D0226C42F004022264BCF1000F06D5BB
:100F80005EEA050203D0226C42F008022264226C61
:100F9000002A3FF457AF0840800602D5204600F0F3
:100FA00091FA20684069216C00F0400001F00801CE
:100FB000401827D0204600F051FA206840694006CA
:100FC0001BD500BF206850E8050F216820F04000C5
:100FD00041E80502002AF5D1A06B70B141F24D4104
:100FE000C0F600010165FFF783FA00283FF42AAF3D
:100FF000A06B016D884702B0B0BD2046FFF7EAFE46
:1010000002B0B0BD2046FFF7E5FE0020206402B02C
:10101000B0BD0000002804BF0120704710B5044691
:1010200090F83D0028B9002084F83C00204600F0EC
:1010300021F8242084F83D002068C16821F4005183
:10104000C160204600F0A0FA2068016921F49041B7
:101050000161416921F02A014161C16841F40051F7
:10106000C16000202021206484F83D1084F83E10E7
:1010700010BD000080B586B041F200010068C4F2E6
:101080000101002288420592CDE9032202920192D9
:1010900001D006B080BD43F630000092C4F20200D9
:1010A000436943F010034361436903F01003009365
:1010B000009B0092036843F001030360006800F0A6
:1010C0000100009000984FF4C06001900220CDE92B
:1010D0000202032004900720059001F5704001A949
:1010E000FFF750FA252000210022FFF7A5FB25205D
:1010F000FFF79EFB06B080BD704700007047000000
:10110000FEE7000010B5142140F60004C4F202010D
:10111000C4F202040860204601210022FFF706FB0A
:10112000204602210022FFF701FB20460421012274
:10113000FFF7FCFA00F014FB204604210022FFF721
:10114000F5FA00F00DFB10BD80B53820FFF7DAFF8F
:1011500000F006FB0620FFF7D5FF00F001FB08209A
:10116000FFF7D0FF00F0FCFA0F20FFF7CBFF00F0F5
:10117000F7FA80BD10B5142140F60004C4F2020154
:10118000C4F202040860204601210122FFF7CEFAD2
:10119000204602210022FFF7C9FA2046042101223D
:1011A000FFF7C4FA204604210022FFF7BFFA00F03F
:1011B000D7FA10BD80B50120FFF7A4FF00F0D0FAE8
:1011C0003820FFF79FFF00F0CBFA80BD2DE9F04FEC
:1011D00087B0002443F630000694CDE90444CDE9FD
:1011E00002440194C4F20200016840F2004841F058
:1011F000040101600168C4F2020801F004010191D8
:1012000001990194016808F5806741F001010160CE
:101210000168002201F00101019101990194016826
:10122000072641F0020101600068072100F002007A
:10123000019001983846FFF779FAA8F580652846AD
:10124000FF2100224FF0FF0BFFF770FA4046F0211C
:1012500000224FF0F009FFF769FA029602AE4FF054
:10126000010A38463146CDE903A40594FFF78AF90F
:1012700028463146CDE902BACDE90444FFF782F9A8
:101280000F2002904FF488100390022004904046F3
:101290003146FFF777F940463146CDE9029ACDE96C
:1012A0000444FFF76FF9062000210022FFF7C4FA7B
:1012B0000620FFF7BDFA072000210022FFF7BCFA45
:1012C0000720FFF7B5FA082000210022FFF7B4FA43
:1012D0000820FFF7ADFA092000210022FFF7ACFA41
:1012E0000920FFF7A5FA07B0BDE8F08F80B540F2FE
:1012F000800041F20001C2F20000C4F201010023AB
:101300004FF00C0C4FF4E13280E80E00C0E90333DB
:10131000C0E905C3C361FFF77DFE002818BFFFF7D2
:10132000A1F880BDFEE70000FEE7000000F0070026
:1013300080F00703042B28BF04234FF0FF3C033841
:101340000CFA03F338BF0020994381400CFA00F0F7
:1013500022EA000008437047704700007047000011
:10136000B0B501380024B4EB106F1CBF0120B0BD34
:101370004EF21005CEF2000568604FF0FF300F21ED
:1013800000F0CCF90720AC6028602046B0BD00001A
:1013900080B5FFF7D7F980BD70B592B006AC204696
:1013A0003021FEF7DFFF002543F640000595CDE92B
:1013B0000355CDE901550095C4F2020001680226EB
:1013C00041F080510160006800F08050009000986A
:1013D00047F200000095C4F20000016866F38F3107
:1013E0000160006800F440400090009801200990DE
:1013F00010200A900E904FF4A8700F9004201090C7
:101400000720119020460696CDE90C65FFF738FBC2
:1014100078B90F20CDE901064FF48050CDE90405DD
:1014200001A802210395FFF71BFA002804BF12B0A0
:1014300070BDFFF717F800004EF68850CEF200009E
:10144000016841F4700101607047000080B5806B55
:101450000021C185C184FFF7BDFC80BD016851E852
:10146000031F026821F4907142E80313002BF5D1A9
:10147000016851E8051F026821F0010142E80513E7
:10148000002BF5D1016B01290AD100BF016851E899
:10149000031F026821F0100142E80313002BF5D16D
:1014A000202180F83E1000210163704780B501685B
:1014B000CA6822F04002CA60202180F83D10FFF780
:1014C0001DFE80BD80B582B090F83E1022291ED14D
:1014D0008268B2F5805F02D10169002948D0816A33
:1014E000B2F5805F07D00AB9026922B1026852687A
:1014F00002F07F0201E0026852680A700121826AEC
:1015000011448162C18D01390A04C18501D002B044
:1015100080BD0168CA6822F02002CA60CA6822F44D
:101520008072CA604A6922F001024A61202180F873
:101530003E10016B012923D100210163016851E8AC
:10154000031F026821F0100142E80313002BF5D1BC
:1015500001680A68D20606D5002201920A68019243
:10156000496801910199818DFFF732FC02B080BD7D
:101570000168826A49686FF35F2111800221BEE72A
:10158000FFF7BAFD02B080BD10B504460068D4E98B
:1015900002C22369016921F440511143016162696A
:1015A00043EA0C01E3691143C268194349F20C6331
:1015B0009A431143C1604169A26921F4407141F22B
:1015C0000043114340F48062C4F201039A42416136
:1015D00002D1FFF70DFA01E0FFF7F8F9E16963685E
:1015E0001922B1F5004FA0FB02011CD15A00DB0FFC
:1015F000FEF740FE48F21F51C5F2EB11A0FB01239C
:101600005A096FF0630302FB0300322303EBC000AF
:10161000A0FB01014FF4F87000EA111000EB02107A
:10162000C1F342111AE09A009B0FFEF723FE48F225
:101630001F51C5F2EB11A0FB01235A096FF06303A0
:1016400002FB0300322303EB0010A0FB0101F0209A
:1016500000EA511000EB0210C1F343112268084365
:10166000906010BD90F83D10212923D18168B1F51B
:10167000805F01D1016931B1016A02684B1C0362CC
:101680000978516007E0016A036831F8022B6FF3B3
:101690005F225A600162C18C01390A04C18418BFFB
:1016A00070470068C16821F08001C160C16841F0E5
:1016B0004001C1607047000080B540F28000C2F276
:1016C0000000FFF789FB80BDFEE70000002848BF4F
:1016D000704700F01F01012202FA01F14EF2802250
:1016E0004009CEF2000242F820107047002848BF9F
:1016F000704700F01F01012202FA01F14EF20012C0
:101700004009CEF2000242F8201070474EF60C500D
:10171000CEF200000068C0F3022070474EF614536A
:1017200000F00F02CEF2000309011A4400F16043F9
:10173000B0F1FF3FC8BF03F564421170704700006D
:101740004EF60C51CEF200010A684FF6FF031A4024
:1017500060F30A2242F0806040F0FD70086070473C
:1017600010B50F240020FEF7D5FE013CFAD110BDC4
:10177000B0B540F20044C4F2020420460121FEF755
:10178000CFFF01283ED1204610210022FEF7CEFFD8
:1017900020460121FEF7C4FF2025002820464FF0F7
:1017A00020014FF0000208BF3725FEF7BFFF20469B
:1017B0000121FEF7B5FF002820464FF040014FF011
:1017C000000208BF3425FEF7B1FF20460121FEF7D5
:1017D000A7FF002820464FF080014FF0000208BF0D
:1017E0003125FEF7A3FF20460121FEF799FF0028CF
:1017F00040F0C68040F2C800C2F200000221016041
:101800002025BDE020460221FEF78AFF012837D1BE
:10181000204610210022FEF789FF20460221FEF714
:101820007FFF2025002820464FF020014FF00002C6
:1018300008BF3825FEF77AFF20460221FEF770FF29
:10184000002820464FF040014FF0000208BF352528
:10185000FEF76CFF20460221FEF762FF00282046BB
:101860004FF080014FF0000208BF3225FEF75EFF07
:1018700020460221FEF754FF002808BF30257FE0F4
:1018800020460421FEF74CFF01283BD120461021C1
:101890000022FEF74BFF20460421FEF741FF2025E2
:1018A000002820464FF020014FF0000208BF3925E4
:1018B000FEF73CFF20460421FEF732FF00282046B9
:1018C0004FF040014FF0000208BF3625FEF72EFF13
:1018D00020460421FEF724FF002820464FF0800117
:1018E0004FF0000208BF3325FEF720FF20460421F9
:1018F000FEF716FF002843D140F2C800C2F20000F4
:1019000001217CE720460821FEF70AFF01284FF05D
:10191000200537D1204610210022FEF707FF204680
:101920000221FEF7FDFE002820464FF020014FF077
:10193000000208BF2F25FEF7F9FE20460221FEF720
:10194000EFFE002820464FF040014FF0000208BF94
:101950002A25FEF7EBFE20460221FEF7E1FE0028D5
:1019600020464FF080014FF0000208BF2D25FEF702
:10197000DDFE20460221FEF7D3FE002808BF2B25FE
:1019800000F00EF82846B0BD80B500F009F8FFF76A
:10199000DBFBFFF7E5FEFFF70DFC00F043F880BD31
:1019A00010B540F20044C4F2020420461021012286
:1019B000FEF7BCFE204620210122FEF7B7FE20469E
:1019C00040210122FEF7B2FE204680210122FEF7CF
:1019D000ADFE10BDFEF7C4FEFFF7DEFCFFF7F6FB21
:1019E000FFF784FCFFF7D0FF7320FFF7C3FB40F243
:1019F0000044C4F20204204610210122FEF796FEA4
:101A0000204620210122FEF791FE2046402101229E
:101A1000FEF78CFE204680210122FEF787FE00BFE4
:101A2000FEE7000070B540F2C400C2F200000021E1
:101A3000016040F27000C2F20000441E1025202612
:101A400004F8016FFFF78CFE013DF9D170BDF1EE96
:101A5000100A4FF6FF71C0F2C03120EA010040F0D9
:101A60004070E1EE100A7047000000000000000026
:101A70000102030406070809000000000102030434
:101A8000A01A00080000002010000000D00100088B
:101A9000B01A000810000020C0060000EC01000889
:101AA0000024F4000100000010000000000000000D
:040000050800019559
:00000001FF
